:100000000C94B3060C94FA060C94FA060C94FA06B7
:100010000C94FA060C94FA060C94FA060C94FA0660
:100020000C94FA060C94FA060C94BC290C948E2AB3
:100030000C94E81B0C94FA060C94FA060C94FA063D
:100040000C94FA060C94FA060C94FA060C94FA0630
:100050000C94FA060C945C1C0C94FA060C94FA06A8
:100060000C94FA060C94FA060C94FA060C94FA0610
:100070000C94FA060C94FA060C94FA060C94FA0600
:100080000C94FA060C94FA060C94FA060C94FA06F0
:100090000C94FA060C94FA060C94FA060C94FA06E0
:1000A0000C94FA060C94FA060C94FA06D608D808B2
:1000B000E308DA08DC08DE08E008E208E508E708FB
:1000C000E908F408EB08ED08EF08F108F308F60872
:1000D000B711B711E911E91136125412AC13AC1370
:1000E00096122B133C133C139C13AC13AC13A513A7
:1000F00032143214441444143B144414441444146D
:10010000321432144014441444144014FB2A222B99
:100110001A2C222B1A2C6E2B912B1A2CE82BF72B36
:1001200068747470733A2F2F716D6B2E666D2F018A
:100130002800514D4B2069732074686520626573F7
:1001400074207468696E67206576657221002900E5
:10015000040013001B001A000E0009001000150017
:1001600044454255473A2064697361626C65642E68
:100170000A0044454255473A20656E61626C6564E9
:100180002E0A0000000000000000002A2B280000BA
:100190000000000000000000000000000000290036
:1001A0000000002C1E3420212224342627252E3640
:1001B0002D3738271E1F20212223242526333336AE
:1001C0002E37381F0405060708090A0B0C0D0E0F01
:1001D000101112131415161718191A1B1C1D2F3184
:1001E00030232D350405060708090A0B0C0D0E0FE8
:1001F000101112131415161718191A1B1C1D2F3164
:1002000030354C000000000000000000000000003D
:1002100000000000000000000000000000000000DE
:1002200000000000000000000000000000000000CE
:1002300000000000000000000000000000000000BE
:1002400000000000000000000000000000000000AE
:10025000000000000000000000000000000000009E
:10026000000000000000000000000000000000008E
:10027000000000000000000000000000000000007E
:10028000000000000000000000000000000000006E
:10029000000000000000000000000000000000005E
:1002A0000000000001010101010100010101010044
:1002B000000000000000000000000000000100013C
:1002C000000101010101010101010101010101011F
:1002D0000101010101010101010101010101000010
:1002E000000101000000000000000000000000000C
:1002F00000000000000000000000000000000101FC
:100300000101000A0025303862003A200025303211
:1003100058000A722F632030313233343536370AB1
:10032000000A002530325820006B6579626F6172D7
:10033000645F7265706F72743A20000A0025303273
:1003400058006B6579626F6172645F7365745F6C8E
:1003500065643A2000290A002575002F00257500E4
:100360005D2800256400200025640020002564002D
:1003700020002564007C0025303258006D6F7573B5
:10038000656B6579205B62746E7C782079207620BD
:10039000685D287265702F61636C293A205B006D7F
:1003A0006B5F776865656C5F74696D655F746F5FBF
:1003B0006D6178203D2025640A006D6B5F7768656C
:1003C000656C5F6D61785F7370656564203D2025A5
:1003D000640A006D6B5F74696D655F746F5F6D615A
:1003E00078203D2025640A006D6B5F6D61785F7336
:1003F00070656564203D2025640A006D6B5F696E41
:1004000074657276616C203D2025640A006D6B5F17
:1004100064656C6179203D2025640A006D6B5F770F
:100420006865656C5F74696D655F746F5F6D617839
:10043000203D2025640A006D6B5F776865656C5F01
:100440006D61785F7370656564203D2025640A00E6
:100450006D6B5F74696D655F746F5F6D6178203D72
:100460002025640A006D6B5F6D61785F7370656550
:1004700064203D2025640A006D6B5F696E746572AF
:1004800076616C203D2025640A006D6B5F64656CAD
:100490006179203D2025640A000A00257500363A5E
:1004A00020776865656C5F74696D655F746F5F6DFB
:1004B00061783A20000A00257500353A2077686592
:1004C000656C5F6D61785F73706565643A20000AE2
:1004D00000257500343A2074696D655F746F5F6D37
:1004E00061783A20000A00257500333A206D617862
:1004F0005F73706565643A20000A00257500323A22
:1005000020696E74657276616C286D73293A2000DB
:100510000A00257500313A2064656C6179282A311A
:10052000306D73293A20000A092D2056616C7565DB
:1005300073202D0A004D3E004D25643E20003F00F3
:100540007365742064656661756C740A00433E20AF
:100550000077686572652064656C74613A20637524
:1005600072736F723D25642C20776865656C3D253C
:10057000640A53656520687474703A2F2F656E2E77
:1005800077696B6970656469612E6F72672F77692F
:100590006B692F4D6F7573655F6B6579730A000A20
:1005A000092D204D6F7573656B6579202D0A4553B4
:1005B000432F713A09717569740A313A0964656C9F
:1005C0006179282A31306D73290A323A09696E74CB
:1005D000657276616C286D73290A333A096D61780A
:1005E0005F73706565640A343A0974696D655F7498
:1005F0006F5F6D61780A353A09776865656C5F6D84
:1006000061785F73706565640A363A097768656575
:100610006C5F74696D655F746F5F6D61780A0A70F5
:100620003A097072696E742076616C7565730A643C
:100630003A097365742064656661756C74730A7534
:10064000703A092B310A646F776E3A092D310A70BE
:100650006775703A092B31300A7067646F776E3AAC
:10066000092D31300A0A7370656564203D20646588
:100670006C7461202A206D61785F737065656420F9
:100680002A2028726570656174202F2074696D6559
:100690005F746F5F6D6178290A003F004D3E200056
:1006A000433E20004C25640A0074696D65725F72D8
:1006B000656164333228293A202530346C580A00A9
:1006C0006B6579626F6172645F69646C653A20255D
:1006D000580A006B6579626F6172645F70726F7443
:1006E0006F636F6C3A2025580A00686F73745F6BF4
:1006F0006579626F6172645F6C65647328293A2062
:1007000025580A000A092D20537461747573202D31
:100710000A004743433A20352E342E3020415652AA
:100720002D4C4942433A20322E302E302041565231
:100730005F415243483A20617672350A004F505467
:10074000494F4E533A204C554641204D4F55534545
:100750004B45592045585452414B455920434F4E23
:10076000534F4C4520434F4D4D414E44203430397A
:10077000360A004255494C443A2022373064303022
:10078000332D646972747922202832333A30333A37
:100790003336204175672031362032303139290A0D
:1007A000005649443A2030784645454428527961FC
:1007B0006E29205049443A20307830303030283388
:1007C00078334D6163726F50616429205645523A07
:1007D000203078303030310A00444553433A2041CC
:1007E00020637573746F6D206B6579626F617264DD
:1007F0000A000A092D2056657273696F6E202D0A52
:10080000000A092D20436F6E736F6C65202D0A4519
:1008100053432F713A09717569740A6D3A096D6F06
:100820007573656B65790A000A092D204D6167694A
:1008300063202D0A443A094465627567204D65734B
:100840007361676520546F67676C650A583A094D94
:100850006174726978204465627567204D6F6465C4
:1008600020546F67676C65202D2053686F77206B6D
:1008700065797072657373657320696E206D61743C
:1008800072697820677269640A4B3A094B6579622C
:100890006F61726420446562756720546F67676C8E
:1008A00065202D2053686F77206B657970726573B2
:1008B00073207265706F72740A4D3A0944656275EF
:1008C00067204D6F75736520546F67676C650A56B6
:1008D0003A0956657273696F6E0A533A0953746127
:1008E0007475730A433A09416374697661746520CB
:1008F000436F6E736F6C65204D6F64650A46312DD2
:100900004631303A0953776974636820746F204C1C
:100910006179657220302D392028463130203D2004
:100920004C30290A302D393A0953776974636820AD
:10093000746F204C6179657220302D390A4752411D
:1009400056453A0953776974636820746F204C6187
:1009500079657220302028616C7465726E617465EF
:10096000290A423A094A756D7020746F20426F6FF0
:10097000746C6F616465720A4553433A094A756D38
:100980007020746F20426F6F746C6F6164657220A9
:1009900028616C7465726E617465290A453A095064
:1009A00072696E7420454550524F4D2053657474E2
:1009B000696E67730A4253504143453A09436C6577
:1009C000617220454550524F4D0A000A00257500BE
:1009D0002E6E6B726F3A20000A002575002E737719
:1009E00061705F6261636B736C6173685F626163A6
:1009F0006B73706163653A20000A002575002E73E1
:100A00007761705F67726176655F6573633A200036
:100A10000A002575002E6E6F5F6775693A20000A1F
:100A2000002575002E737761705F72616C745F7260
:100A30006775693A20000A002575002E737761708A
:100A40005F6C616C745F6C6775693A20000A002501
:100A500075002E636170736C6F636B5F746F5F639F
:100A60006F6E74726F6C3A20000A002575002E7349
:100A70007761705F636F6E74726F6C5F63617073C8
:100A80006C6F636B3A20000A0025303258006B65AA
:100A9000796D61705F636F6E6669672E7261773A18
:100AA00020000A002575002E6D6F7573653A2000D1
:100AB0000A002575002E6B6579626F6172643A20B9
:100AC000000A002575002E6D61747269783A200065
:100AD0000A002575002E656E61626C653A20000A79
:100AE00000253032580064656275675F636F6E661B
:100AF00069672E7261773A20000A002575006465E7
:100B00006661756C745F6C617965723A20003F00B4
:100B10000A6D6F7573653A206F66660A000A6D6F1D
:100B20007573653A206F6E0A000A6B6579626F61B2
:100B300072643A206F66660A000A6B6579626F61BB
:100B400072643A206F6E0A000A6D61747269783AB5
:100B5000206F66660A000A6D61747269783A206FC8
:100B60006E0A000A64656275673A206F66660A005D
:100B70000A64656275673A206F6E0A000A0A4A7550
:100B80006D70696E6720746F20626F6F746C6F6137
:100B90006465722E2E2E2000433E2000436C65615A
:100BA00072696E6720454550524F4D0A0065656376
:100BB0006F6E6669673A0A005B735D004B65796228
:100BC0006F6172642073746172742E0A005B575DEA
:100BD000005B535D005B525D005B445D005B435D09
:100BE0000004033000000018033300780033004D88
:100BF000006100630072006F00500061006400003B
:100C0000000A035200790061006E0000000403092D
:100C10000409025B00030100A0FA090400000103BB
:100C20000101000921110100012240000705810393
:100C300008000A0904010001030000000921110154
:100C400000012285000705820320000A0904020032
:100C50000203000000092111010001222200070502
:100C60008303200001070503032000011201100186
:100C700000000008EDFE0000010001020301063142
:100C8000FF0974A1010975150026FF00952075085C
:100C900081020976150026FF00952075089102C093
:100CA00005010902A10185020901A1000509190137
:100CB000290515002501950575018102950175032A
:100CC00081010501093009311581257F95027508DB
:100CD000810609381581257F950175088106050C67
:100CE0000A38021581257F950175088106C0C00567
:100CF000010980A10185031601002603001A810065
:100D00002A8300751095018100C0050C0901A1011D
:100D10008504160100269C021A01002A9C02751007
:100D200095018100C005010906A101050719E02907
:100D3000E715002501950875018102950175088167
:100D4000010508190129059505750191029501759F
:100D50000391010507190029FF150026FF009506DC
:100D600075088100C00011241FBECFEFDAE0DEBF9E
:100D7000CDBF04B603FE27C08091D4019091D50168
:100D8000A091D601B091D7018730904BA740B04BCE
:100D9000D1F41092D4011092D5011092D601109284
:100DA000D70114BE84B7877F84BF0FB6F894A89587
:100DB00080916000886180936000109260000FBE97
:100DC000E0E0F8E3099511E0A0E0B1E0E6E9F9E53B
:100DD00002C005900D92A233B107D9F721E0A2E33A
:100DE000B1E001C01D92A43DB207E1F70E94DD26EB
:100DF0000C94C92C0C940000FF93EF93E091320106
:100E0000F0913301309709F00995EF91FF91089522
:100E1000FC018591803011F0EFDFFBCF0895FF27B3
:100E2000E0E230E247FF0CC0419597FF09C0EDE2D8
:100E30006095709580959095611D711D811D911D26
:100E400027FF02C0219530E350E2AA27660F771FE3
:100E5000881F991FAA1FA41710F0A41B63955A9509
:100E6000A9F7AA3008F0A95FA05DAF93F3956115CB
:100E700071058105910541F7ED3211F4EF93F3957A
:100E8000F21718F43F93F395FBCF8F91B5DFFA95E6
:100E9000E1F70895E991F9918591803021F085324B
:100EA00019F0AADFF9CF089520E0E8945591553262
:100EB000C1F3503311F4689455915A3348F45053A8
:100EC00090F3220F022E220F220F200D250FF4CFB8
:100ED0000EF4219589919991533619F3533729F1DD
:100EE000533559F1BC0188279927E8945C3621F4E1
:100EF0008991999168945591543639F446EF7EF072
:100F000077FF0DC08FEF9FEF0AC055374AE039F0E9
:100F1000583540E121F0523642E009F00895FF9340
:100F2000EF937DDFEF91FF91B7CFFF93EF93FC013C
:100F300081918030B9F360DFFBCFFF93EF9368DFDF
:100F4000F1CFDF93CF93CDB7DEB72596A3DFCF9157
:100F5000DF910895873F2CE5920721F0883F9C455B
:100F600041F00FC0FB018281882359F082E391E0B8
:100F700006C0FB018281882321F080E291E00E947B
:100F80006B0881E0089508950895089581E008951B
:100F90000C94AA071F93CF93DF9300D000D01F9229
:100FA000CDB7DEB749835A836B8320914B0189818A
:100FB0009A81211112C0662349F00E948219182FCC
:100FC000682F89819A810E942B1903C00E945619AB
:100FD000182F69817A81812F04C00E94821969814A
:100FE0007A810F900F900F900F900F90DF91CF911B
:100FF0001F910C948709FC014081518162817381AA
:1010000084810C94CA071F93CF93DF9390E0FC0177
:10101000ED57FE4F1491FC01ED57FD4FD491FC01AB
:10102000ED5FFD4FC491DD2319F081EE0E94D20FD8
:10103000CC2319F086EE0E94D20F812F0E946411FA
:10104000CC2319F086EE0E94FC10DD2331F081EEF6
:10105000DF91CF911F910C94FC10DF91CF911F91E4
:1010600008950F931F93CF93DF93EC01062FFE019A
:101070008491882359F19E012F5F3F4F813041F4C5
:10108000E901F9011491812F0E94D20F812F0DC027
:10109000823031F4E901F90184910E94D20F0AC033
:1010A000833031F4E901F90184910E94FC1002C0FF
:1010B0000E9403082196802F8823C9F2EFE9FFE000
:1010C0003197F1F700C000008150F6CFDF91CF914A
:1010D0001F910F91089560E00C9431080E94CB1A83
:1010E000811102C00E94511B0C94FE0B0C94000C49
:1010F0000C94C5070C94780808950E9420140E944F
:101100007C082FEF84E39CE0215080409040E1F781
:1011100000C000000C94821C0F931F93CF93DF93A9
:101120008C010E94FB07EC01B8010E94C8078823CC
:10113000C9F0B801CE010E94D80D882399F0C531BD
:10114000FCE5DF0708F086C0C2308CE5D80760F404
:10115000C115ECE5DE0709F059C0F8018281811163
:101160000E947D08C0E0C9C0F8018281882309F48B
:1011700050C00E94CB1A811102C00E94511B0E94D4
:10118000DE1A90E09093C6018093C501FE01E35002
:10119000FC45E231F10530F4EA5AFF4F8091C50178
:1011A0000C946D2C8091C501816027C0826025C0A0
:1011B000846023C0806121C080621FC080641DC024
:1011C00080681BC08460886018C08E7F16C08D7FC9
:1011D00014C08B7F12C08F7E10C08F7D0EC08F7B9E
:1011E0000CC08F770AC08B7F877F07C087FB2227C1
:1011F00020F991E0922790FB87F98093C5018091B7
:10120000C5010E94E21A0E942014ACCFC130DC4517
:1012100039F0C801DF91CF911F910F910C94C6074F
:10122000F8018281882309F49DCF8091A301C82F02
:10123000C095C170C0FB80F98093A301CC2329F035
:1012400082E791E00E9408078DCF80E691E00E943E
:10125000080753C0CC3D8CE5D80739F4F8018281EA
:10126000882309F47FCF80E00EC0CD3DECE5DE079A
:1012700068F0CD3D8CE5D807A1F5F801828188237F
:1012800009F470CF82E00E9483276CCFC631DC4521
:1012900009F0BFCF0E94031A982FF8018281209194
:1012A000000130910101882379F09A7A81E009F4F4
:1012B00080E080933401911102C069E201C065E3CE
:1012C000C9010E94861B0AC080913401811102C0AD
:1012D00069E201C065E3C9010E94881B0E94511A9E
:1012E00041CFCE3DDC4509F094CFF80182818823BF
:1012F00009F438CF0E94511B35CF8C2FDF91CF914D
:101300001F910F91089580E090E008950895272F90
:1013100030E0F901EE0FFF1F2E0F3F1FF90199E09A
:10132000899FE00DF11D1124E60FF11DEE0FFF1F47
:10133000E25BFE4F859194910895880F991FFC01FF
:10134000ED5FFC4F859194910895CF93DF930E94B8
:1013500087090E945F0BEC018115904508F041C0A0
:10136000C11580E4D80708F028C1C83ED10510F5A2
:10137000C03ED10508F09FC1C83AD10578F4C53AFE
:10138000D10508F0A2C0C130D10509F494C108F418
:1013900045C1C430D10508F08EC140C1CF3BD10555
:1013A00008F49EC0C03CD10508F438C1CE01805C71
:1013B0009109F5C0C11590E2D90758F4C11521E093
:1013C000D20708F078C1C03FD10508F427C1D06525
:1013D00072C1C11580E3D80708F0E5C0CE019F7047
:1013E000DEC0C11595E5D90708F043C0C11524E555
:1013F000D20708F0F9C0C11582E5D80708F5C11574
:1014000091E5D90708F0DCC0CE0174E09695879588
:101410007A95E1F783709C2F937021E030E002C051
:10142000220F331F9A95E2F73C68382BCF70C69590
:10143000C69580E2C89FE0011124C22BD32B3BC18B
:101440009E01237033278C2F86958695C115D34531
:1014500008F0BBC0C1E0D0E002C0CC0FDD1F2A9570
:10146000E2F720E2829FC0011124C82BD92BDC684F
:1014700022C1C11529E5D207A0F4C11588E5D80716
:1014800008F0B7C0C11596E5D90708F0C7C08C2F82
:101490000E94DB0B8F71C82FD0E0DC2FCC27D062ED
:1014A0000AC1C1152AE5D20708F4A8C0CE0190569A
:1014B0008115904208F0B2C08D2F8F710E94DB0B16
:1014C000DD27D0628F71D82BF6C0C53AD10509F45B
:1014D000A8C0C63AD10509F0A7C0C2E8D0E4EBC065
:1014E000C83AD10509F4A3C0C93AD10509F4A2C08C
:1014F000CA3AD10509F4A1C0CB3AD10509F4A0C07C
:10150000CC3AD10509F49FC0CB3BD10509F49EC06C
:10151000CC3BD10509F49DC0CD3AD10509F49CC05E
:10152000C03BD10509F49BC0CE3AD10509F49AC05D
:10153000CF3AD10509F499C0C13BD10509F498C04F
:10154000C23BD10509F497C0C33BD10509F496C04D
:10155000C43BD10509F495C0C53BD10509F494C03D
:10156000C63BD10509F493C0C73BD10509F492C02D
:10157000C83BD10509F491C0C93BD10509F490C01D
:10158000CD3BD10509F48FC0CE3BD10509F48EC007
:10159000CA3BD10509F48DC0C0E0D4E48CC00E94E0
:1015A0009D09EC0188C0CE019927D3FF03C0EC014F
:1015B000D86C81C0EC01D06C7EC0DF70D06A7BC07B
:1015C000DC2FCC27C16FD06A76C0C1E0D0E002C06A
:1015D000CC0FDD1F2A95E2F720E2829FC001112483
:1015E000C82BD92BDA6867C0DC2FCC27C46FD06A30
:1015F00062C0DC2FCC27C06FD06A5DC08C2F8F708B
:101600000E94DB0B94E0D695C7959A95E1F7CF70D1
:10161000D0E0DC2FCC27D069C82B4DC0C0E0D0E093
:101620004AC0C1E8D0E447C0C3E8D0E444C0C2EE39
:10163000D4E441C0C9EED4E43EC0CAEED4E43BC019
:10164000C5EBD4E438C0C6EBD4E435C0C3EBD4E476
:1016500032C0C4EBD4E42FC0C7EBD4E42CC0CCEC34
:10166000D4E429C0CDECD4E426C0C3E8D5E423C03B
:10167000CAE8D5E420C0C2E9D5E41DC0C4E9D5E478
:101680001AC0C1E2D6E417C0C3E2D6E414C0C4E273
:10169000D6E411C0C5E2D6E40EC0C6E2D6E40BC063
:1016A000C7E2D6E408C0CFE6D4E405C0C0E7D4E47E
:1016B00002C0CAE2D6E4CE01DF91CF91089582380C
:1016C000910549F1B0F48133910509F459C048F40A
:1016D0008932910509F44FC08A32910509F455C049
:1016E00008958533910509F441C08933910599F036
:1016F0000895833E910531F138F4803E910591F0D3
:10170000823E9105A9F00895863E910501F1873E3C
:10171000910539F108952091C50120FD3BC021FDBF
:1017200039C008958091C50180FF34C089E341C06C
:101730008091C50182FF30C08091C50184FD2EC01B
:1017400083EE37C08091C50182FD26C0F5CF809120
:10175000C50183FF25C08091C50184FD1FC087EEB0
:1017600028C08091C50183FD1BC0F5CF8091C501C4
:1017700085FD18C019C08091C50185FD15C012C036
:101780008091C50186FD12C013C08091C50186FD00
:101790000FC00CC080EE0DC082EE0BC080E009C00F
:1017A00086EE07C089E205C085E303C08AE201C076
:1017B00081E390E008959091C50192FF0DC0282F1C
:1017C0002871283019F4877F846006C0282F24717F
:1017D000243011F48B7F886093FF0DC0282F28716F
:1017E000283119F4877E846106C0282F24712431A2
:1017F00011F48B7E886194FD877E08950C94C30755
:101800000C94C407E82FF0E0EB5CFE4F8081089554
:10181000CF92DF92EF92FF920F931F93CF93DF93BC
:1018200082E193E00E94080785E3E82E81E0F82E2C
:10183000C0E0D0E09DE0C92E93E0D92E05E013E092
:10184000DF93CF93DF92CF920E94A1078AE093E0CB
:101850000E940807F70181917F010E94B91A1F9227
:101860008F931F930F930E94A10783E093E00E9440
:10187000080721968DB79EB708960FB6F8949EBFBD
:101880000FBE8DBFC330D105D9F6DF91CF911F9127
:101890000F91FF90EF90DF90CF900895CF93DF935B
:1018A000A6E1B1E049E151E061E070E08D91E82FFF
:1018B000E295EF70F0E021A18F70EB0102C0CC0F38
:1018C000DD1F8A95E2F7CE019C2F9095922391A37C
:1018D00092A1892B82A34A175B0741F7A3E1B1E0EC
:1018E00046E151E061E070E08D91E82FE295EF7004
:1018F000F0E021A18F70EB0102C0CC0FDD1F8A95B3
:10190000E2F7CE019C2F9095922391A392A1892B6F
:1019100082A34A175B0741F71092380110923501F4
:10192000109239011092360110923A01109237014B
:1019300083E00E942D0DDF91CF910C946E085F9291
:101940006F927F928F929F92AF92BF92CF92DF92CF
:10195000EF92FF920F931F93CF93DF9366E171E0B5
:10196000A8E3B1E02BE3A22E21E0B22E612C01E02E
:1019700010E06D015C901C92EB018991BE01E82F93
:10198000E295EF70F0E021A18F70A80102C0440F32
:10199000551F8A95E2F7CA01242B21A322A1942E78
:1019A0009094292122A350EA5A95F1F793E1E92E68
:1019B00091E0F92E40E050E0E70189907E01282D6A
:1019C00022952F7030E0E90128A17C9030E0D82DDD
:1019D000DF7002C035952795DA95E2F720FD08C043
:1019E000302F042E01C0330F0A94EAF7232F01C0D1
:1019F00020E027292C934F5F5F4F43305105E1F6DC
:101A000091A1992291A292A1892B82A3119681E0A2
:101A1000F6019081951101C080E0682AAA16BB06E4
:101A200009F0A7CF262D43E065E371E088E391E05C
:101A30000E942E0D0E947608862DDF91CF911F9176
:101A40000F91FF90EF90DF90CF90BF90AF909F905D
:101A50008F907F906F905F9008950895FF920F93FD
:101A60001F93CF93DF938C01F62ED72FC42F222301
:101A700049F081E080933D010E941A1C90933C0143
:101A800080933B0180913D018823C1F080913B010F
:101A900090913C010E94321C069780F0EF2DFD2FA3
:101AA000D8014C2F50E0CD01801B910B8417950776
:101AB0001CF48D918193F7CF10923D01DF91CF916E
:101AC0001F910F91FF9008950F931F93CF93DF9372
:101AD000C62FD42F122FFC0182818823C9F0609376
:101AE00040010E941A1C90933F0180933E0180E2C6
:101AF0008C0F883008F057C0C77081E001C0880F94
:101B0000CA95EAF7DF91CF911F910F910C9477114D
:101B100080914001681330C080913E0190913F0157
:101B20000E94321C883C910538F500E20D0FCD175C
:101B3000B9F080E28C0F883040F4C77081E001C0BA
:101B4000880FCA95EAF70E947E11083028F581E0D7
:101B50009D2F977001C0880F9A95EAF70E94771120
:101B6000812F0E9464110830F0F4D77081E001C029
:101B7000880FDA95EAF70AC080E28C0F883098F473
:101B8000C77081E001C0880FCA95EAF7DF91CF9155
:101B90001F910F910C947E11812FDF91CF911F9196
:101BA0000F910C946411DF91CF911F910F910895C3
:101BB0009C01CB01203F4CE53407F9F078F4283D37
:101BC000FCE53F07B9F0293D4CE5340711F1273D0D
:101BD0003C4531F526E241EE61EE1EC0223FFCE5B8
:101BE0003F0799F070F0233F3C45D1F427E245EEE2
:101BF00066EE12C027E245EE0EC026E241EE60EE30
:101C00000BC027E245EE64EE07C026E241EE62EE2D
:101C100003C028E241E065EE0E94640D80E0089573
:101C2000FC018281882319F010924001089581E01F
:101C3000089590934601809345010895E0914501F0
:101C4000F0914601309721F00190F081E02D099448
:101C500080E00895EF92FF920F931F93CF93DF934D
:101C6000E0914501F09146013097B1F18C0102807D
:101C7000F381E02D09958091A30182FF2DC080FFA3
:101C800004C089E293E00E940807E80118E083E2BB
:101C9000E82E83E0F82E8091A30180FF0BC088819D
:101CA0001F928F93FF92EF920E94A1070F900F90C7
:101CB0000F900F90115021961111EDCF8091A3013B
:101CC00080FF0AC081E293E0DF91CF911F910F91D5
:101CD000FF90EF900C940807DF91CF911F910F9127
:101CE000FF90EF900895E0914501F0914601309703
:101CF00039F022E0DC012C930480F581E02D099479
:101D0000089520914301309144012817390771F05B
:101D10009093440180934301E0914501F091460185
:101D2000309721F00680F781E02D099408952091E5
:101D30004101309142012817390771F09093420117
:101D400080934101E0914501F0914601309721F0E7
:101D50000084F185E02D0994089585B7806885BFDA
:101D600085B7806885BF089508950C94B40E0C94CF
:101D7000B50E0C94B40E0C94B40E0E94AD0E0E94DD
:101D8000B90E0C94B70E81E008950E94111C0E94B8
:101D90004E0C0E94A61C0C94BB0ECF93C82F8091B2
:101DA000A30182FF1EC080FF04C082E493E00E9472
:101DB00008078091A30180FF0CC01F92CF938DE391
:101DC00093E09F938F930E94A1070F900F900F9025
:101DD0000F908091A30180FF04C08BE393E00E94E9
:101DE00008078C2FCF910C947A08BF92CF92DF9284
:101DF000EF92FF920F931F93CF93DF93CDB7DEB790
:101E00002A970FB6F894DEBF0FBECDBF0E949F0C7D
:101E10000E94C30E811111C08FEF89838A831B82B8
:101E20000E941A1C8160782F9D838C8349815A817E
:101E30006B818D810E949E0F54C088E4C82E81E082
:101E4000D82E00E010E0B02E802F0E94020CE82E69
:101E5000F60121916F01F82EF22631F40F5F1F4F2A
:101E60000330110581F7D8CF8091A30181FD0E9435
:101E7000080C80E090E02F2D30E0482FB901082EAB
:101E800002C0759567950A94E2F760FF25C08E83BE
:101E9000BF8281E090E06C0102C0CC0CDD1C4A9551
:101EA000E2F72E2D30E02C213D21232B09F480E098
:101EB00088870E941A1C8160782F9A8789874E81B3
:101EC0005F8168858A850E949E0FF801E85BFE4F5E
:101ED00080818C25808305C001968330910569F649
:101EE000BDCF0E94BB1E0E941E0E90914701891714
:101EF000A9F00E941E0E809347012A960FB6F8940F
:101F0000DEBF0FBECDBFDF91CF911F910F91FF902C
:101F1000EF90DF90CF90BF900C94CD0E2A960FB625
:101F2000F894DEBF0FBECDBFDF91CF911F910F910F
:101F3000FF90EF90DF90CF90BF900895CF93DF9305
:101F4000CDB7DEB72B970FB6F894DEBF0FBECDBF6F
:101F50004F83588769877A878B87DE01119686E0E1
:101F6000FD0111928A95E9F785E0FE01379601900F
:101F70000D928A95E1F749815A816B817C818D812F
:101F80009E810E94F0162B960FB6F894DEBF0FBE0E
:101F9000CDBFDF91CF910895FC01808191810E9496
:101FA000C4190895CF93882309F424C1C82F823817
:101FB000C1F40E941E0E81FD1DC169E380910001E4
:101FC000909101010E94861B0E94511A2FEF81EE11
:101FD00094E0215080409040E1F700C0000069E3A8
:101FE00019C0833801F50E941E0E80FD03C163E510
:101FF00080910001909101010E94861B0E94511A5C
:102000002FEF81EE94E0215080409040E1F700C036
:10201000000063E580910001909101010E94881BFE
:10202000CF910C94511A8438C1F40E941E0E82FD87
:10203000E1C067E480910001909101010E94861B3C
:102040000E94511A2FEF81EE94E021508040904081
:10205000E1F700C0000067E4DDCF8CEF8C0F813A20
:1020600068F48C2F0E9428238111C4C06C2F8091AA
:102070000001909101010E94861BD2CF80E28C0F5B
:10208000883048F4C77081E001C0880FCA95EAF72C
:102090000E94061AC5CF8BE58C0F833078F4C53AC1
:1020A00029F0C63A31F083E890E005C081E890E07D
:1020B00002C082E890E0CF910C94810E88E58C0FED
:1020C000873108F08FC0C83A09F445C0C93A09F40D
:1020D00045C0CA3A09F445C0CB3A09F445C0CC3AE8
:1020E00009F445C0CB3B09F445C0CC3B09F445C0DD
:1020F000CD3A09F445C0C03B09F445C0CE3A09F4D5
:1021000045C0CF3A09F445C0C13B09F445C0C23BC4
:1021100009F445C0C33B09F445C0C43B09F445C0BC
:10212000C53B09F445C0C63B09F445C0C73B09F4AB
:1021300045C0C83B09F445C0C93B09F445C0CD3B87
:1021400009F445C0CE3B09F445C0CA3B09F445C07B
:1021500080E090E044C082EE90E041C089EE90E0E3
:102160003EC08AEE90E03BC085EB90E038C086EB45
:1021700090E035C083EB90E032C084EB90E02FC05C
:1021800087EB90E02CC08CEC90E029C08DEC90E0C7
:1021900026C083E891E023C08AE891E020C082E96C
:1021A00091E01DC084E991E01AC081E292E017C07D
:1021B00083E292E014C084E292E011C085E292E0F2
:1021C0000EC086E292E00BC087E292E008C08FE684
:1021D00090E005C080E790E002C08AE292E0CF91F3
:1021E0000C94970EC03F30F08C2F0E94411DCF9170
:1021F0000C942E1ECF910895882309F464C0823870
:1022000079F40E941E0E81FF5EC069E38091000197
:10221000909101010E94861B0E94511A69E310C02F
:102220008338B1F40E941E0E80FF4DC063E580919B
:102230000001909101010E94861B0E94511A63E5E2
:1022400080910001909101010E94881B0C94511A09
:10225000843879F40E941E0E82FF35C067E48091B5
:102260000001909101010E94861B0E94511A67E4AF
:10227000E7CF9CEF980F913A10F4682FE1CF90E2EE
:10228000980F983050F4877091E001C0990F8A95AB
:10229000EAF7892F0E940C1AD9CF9BE5980F93304B
:1022A00020F480E090E00C94810E98E5980F97312F
:1022B00020F480E090E00C94970E803F20F00E9484
:1022C000A91D0C942E1E0895CF93C82F0E94D20FE3
:1022D000C93349F42FEF87EE93E0215080409040BE
:1022E000E1F700C000008C2FCF910C94FC108823E4
:1022F00021F00E94061A0C94511A0895882321F0A7
:102300000E940C1A0C94511A0895CF92DF92EF920A
:10231000FF920F931F93CF93DF937C01062FC72F5C
:10232000FC01158112951F70D281D1110E94231AD0
:102330000E94FC19882379F0DD2369F080E2800F88
:10234000883048F082E00E949B1A0E94FC1991E0BC
:10235000D82ED92601C0D12CCC2EC2948FE0C82211
:102360008C2D90E0FC01E859FF4F0C946D2C8C2FC4
:10237000807FCF70882311F0C295C07FDD2399F054
:10238000CC2309F4C4C180E2800F883010F0011121
:1023900004C08C2F0E94061A03C08C2F0E94161AAC
:1023A0000E94511AB4C1802F0E94FC10CC2309F462
:1023B000D3C180E2800F883010F0011104C08C2F4F
:1023C0000E940C1A03C08C2F0E941C1A0E94511AE2
:1023D000C3C18C2F807FCF70803211F0C295C07F37
:1023E000002319F00130C9F022C0DD2371F0112360
:1023F00041F0113031F40E94361A8C2B0E943E1AA3
:10240000ABC10E94361A8C2B1DC0112319F011305C
:1024100009F4A2C10E94471A25C0DD2321F016301D
:1024200008F09AC10EC0153008F096C11BC0DD231C
:1024300061F0112331F0F701858180FF68C18F7051
:1024400085838C2F0E94771187C1112359F009339E
:1024500009F06EC1FFEF27EE83E0F150204080408D
:10246000E1F764C18C2F0E947E1176C18C2F869576
:102470008695837019F0813061F06EC1DD2321F003
:10248000802F9C2F937002C080E090E00E94810E0C
:102490006BC1DD2321F0802F9C2F937002C080E060
:1024A00090E00E94970E60C1DD23F9F0053F51F0E6
:1024B000063F71F0043FA9F48091BF019091C001E3
:1024C00081600BC08091BF019091C001826005C006
:1024D0008091BF019091C00184609093C00180936E
:1024E000BF01802F0E94411D1EC0053F51F0063FD5
:1024F00071F0043FA9F48091BF019091C0018E7FDB
:102500000BC08091BF019091C0018D7F05C080916B
:10251000BF019091C0018B7F9093C0018093BF0158
:10252000802F0E94A91D0E942E1E1EC18C2F837019
:1025300009F045C0D11114C1402F4295469547700E
:10254000440F440F602F6F70862F90E0A0E0B0E042
:10255000042E04C0880F991FAA1FBB1F0A94D2F72C
:1025600004FF10C00FE010E020E030E004C0000FD6
:10257000111F221F331F4A95D2F700951095209501
:10258000309503C000E010E09801C695C695C37071
:10259000BC01CD01602B712B822B932BC23049F0F3
:1025A00058F4C13019F00E944118DAC00E942F1867
:1025B000D7C00E945318D4C00E942D18D1C0DD236B
:1025C00019F08C2F817001C08695882309F4C8C04A
:1025D000402F429546954770440F440F602F6F700F
:1025E000862F90E0A0E0B0E0042E04C0880F991F71
:1025F000AA1FBB1F0A94D2F704FF10C00FE010E01F
:1026000020E030E004C0000F111F221F331F4A9545
:10261000D2F7009510952095309503C000E010E0AA
:102620009801C695C695C370BC01CD01602B712B76
:10263000822B932BC23049F058F4C13019F00E941C
:1026400006198EC00E94F4188BC00E94181988C009
:102650000E94671885C0CF70DD2339F08C2F0E944F
:102660008D18802F0E9477117BC0802F0E947E11D1
:102670008C2F0E94AE1874C0023F01F128F4003F75
:1026800041F0013FA1F03FC0033FF9F0043F39F1B1
:102690003AC0DD2341F0153008F05EC08C2F8F71F9
:1026A0000E94D31859C0163008F056C0F7CFDD236A
:1026B00039F08C2F8F710E948D184EC0DD23C9F325
:1026C0008C2F8F710E94AE1847C0DD2329F08C2F0C
:1026D0008F710E94781840C00E9473183DC0DD239E
:1026E00049F0CF718C2F0E948D1863E08C2F0E94CF
:1026F000861A32C081E00E949B1A123068F182E093
:102700000E949B1A29C0DD2331F0112391F2802F02
:102710000E94D20F21C0112399F2093349F49FEF8F
:10272000E7EEF3E09150E040F040E1F700C0000038
:10273000802F0E94FC1010C04C2F4F70602FC701DB
:102740000E9483090E949E170FC04C2F4F70602F6C
:10275000C7010E94860908C088EF8C0D843020F4E0
:102760000E941E0E0E947A08DD20C9F00E94F8190E
:1027700080FD15C0F70112820E94F2190E948D1887
:10278000C7010E94D8130E94F219DF91CF911F91C7
:102790000F91FF90EF90DF90CF900C94AE18DF91E7
:1027A000CF911F910F91FF90EF90DF90CF90089500
:1027B0000F931F93CF93DF93EC01988189812B8135
:1027C0003C81232B31F08F3F31F481E09F3F19F49E
:1027D00003C081E001C080E080FD13C0CE010E94F3
:1027E0008C08882371F0688179818A810E94CF19D1
:1027F0008C010E942A190E941B18B801CE010E9468
:102800008511DF91CF911F910F9108950E94231A96
:102810000E94331A0E94511A0E94561F0E942E1EB7
:1028200080E090E00E94810E80E090E00C94970E92
:1028300080910001909101010E948A1B0C94061462
:102840000E94131A0C941814E92FE295EF704E2F82
:1028500050E0FA013297EE30F105B0F4E858FF4F3E
:102860000C946D2C803F91F018F4883E68F40EC0F3
:10287000843F51F40BC0883E48F0813F29F406C0E4
:1028800093FB882780F9089580E0089581E00895FA
:102890000E94C4190E9424140895CF93DF9300D09E
:1028A00000D01F92CDB7DEB70F900F900F900F9012
:1028B0000F90DF91CF910895CF93DF9300D000D098
:1028C00000D0CDB7DEB726960FB6F894DEBF0FBEA8
:1028D000CDBFDF91CF9108951F93CF93DF93C09128
:1028E0004C0116E080914D01C81799F0D0E01C9F73
:1028F000F0011D9FF00D1124E25BFE4F40815181DC
:1029000062817381848195810E945C142196C770D5
:10291000E9CFDF91CF911F91089540917E015091B1
:102920007F0160918001709181018091820190917D
:1029300083010C945C14CF938091830182958F70F6
:1029400009F05FC080918001882309F45AC080910A
:102950004C01B0914D0170917E01A0917F01409199
:1029600081015091820191E07F3F09F090E0692F51
:10297000C6E08B1709F445C04115510521F0AF3F62
:1029800021F020E003C021E001C0262F90E020FDCF
:1029900035C0C89FF001C99FF00D1124E25BFE4FC6
:1029A00021812A132BC02081271328C022812111C5
:1029B00025C0238134812417350710F421503109B3
:1029C000241B350B283C3105C8F4209183012F705E
:1029D00020612093830126E0289FF001299FF00DBC
:1029E0001124ED5AFE4F80818F70806180838EE7C5
:1029F00091E00E94D813CF910C946C1401968770CB
:102A0000B8CFCF910895AF92BF92CF92DF92EF925D
:102A1000FF920F931F93CF93DF93CDB7DEB76197EC
:102A20000FB6F894DEBF0FBECDBF8C0185E0F80174
:102A3000DE011D9601900D928A95E1F7D8014C9127
:102A400011965C9111971296EC9030917E016091F5
:102A50007F018091810190918201009731F06F3F59
:102A600031F421E03F3F19F403C021E001C020E030
:102A7000B22FB170BB2E20FD60C1F801C380D4809D
:102A8000A0908001AA2009F4EEC020918301C8160D
:102A9000D90628F0D601A81BB90BCD0104C080953A
:102AA00090958C0D9D1DFF24F394883C910580F03A
:102AB000F12C207F09F09CC07C2DD98AC88A6E2D0C
:102AC00089890E944D148EE791E00E94D8132DC190
:102AD000822F807F09F054C0561314C0431312C0D4
:102AE000FE2CE1100FC02F702061209383010E9403
:102AF0008D148EE791E00E94D81380918301F80134
:102B000085835CC1CD2831F05F3F31F481E04F3FD8
:102B100019F403C081E001C080E080FD03C081E0C2
:102B20008E2502C080E090E0F82FF170FF2E80FF2C
:102B30001CC080914C0120914D0136E0821709F4B0
:102B40001AC190E0389FF001399FF00D1124E25B2B
:102B5000FE4F6181561306C06081461303C0628137
:102B6000E61203C001968770E9CFFE2CEE2009F42F
:102B700025C180918301816080938301F12C1EC166
:102B8000561309C0431307C0E11005C080918301AB
:102B9000F8018583A4C04D875E878D859E850E9440
:102BA0004814882379F1EE2069F120918301822F66
:102BB00082958F7090E0029774F080917E019091E1
:102BC0007F0198878F831986DB86CA862C87CE0182
:102BD00007960E94D81386E0F801AEE7B1E00190B5
:102BE0000D928A95E1F70E949B140E948D140DC0EE
:102BF000561771F04D875E878D859E850E9448141B
:102C000081111AC0C8010E94D813FF24F394D6C0C2
:102C10004313F0CFE110EECF80918301F80185835B
:102C2000C8010E94D81386E0EEE7F1E0DF011D92B3
:102C30008A95E9F7FA2CC2C0EE2021F32091830196
:102C4000822F82958F7090E002972CF280917E0106
:102C500090917F019A8389831B82DD82CC822E83AF
:102C6000CE010196B6CFC816D90628F0F601E81BAA
:102C7000F90BCF0104C0809590958C0D9D1D883C6B
:102C8000910548F0F12C7C2DD98AC88A6E2D89894E
:102C90000E944D144AC0FE2CEE2009F4B3CF561307
:102CA00033C0431331C02091830120FD24C0822F03
:102CB00082958F70482F50E041155105E1F0D80101
:102CC00015962C9315974F30510549F08F5F982F2B
:102CD0009295907F822F8F70892B15968C93C801C7
:102CE0000E94D81386E0F801AEE7B1E001900D92A2
:102CF0008A95E1F73DC086E0F801AEE7B1E00190CA
:102D00000D928A95E1F75AC04D875E878D859E8525
:102D10000E94481481115FCF80918301816080936C
:102D20008301C8010E94D81349C0EEE7F1E086E0B4
:102D3000DF011D928A95E9F71BC0EE2009F462CFEE
:102D40004D875E878D859E850E944814F82E8823C6
:102D500009F458CF86E0F801AEE7B1E001900D929A
:102D60008A95E1F78EE791E00E94CC0F0E949B14B8
:102D70000E948D1423C04D875E878D859E850E949D
:102D8000C419292F22952F70223028F49F7039F012
:102D9000811105C00BC0243028F49F7049F4805E77
:102DA000883020F0C8010E94D813BF2CFB2C06C02D
:102DB000D80115969C91907F91F7F8CF8F2D619651
:102DC0000FB6F894DEBF0FBECDBFDF91CF911F913C
:102DD0000F91FF90EF90DF90CF90BF90AF9008954C
:102DE0001F93CF93DF93CDB7DEB72C970FB6F89430
:102DF000DEBF0FBECDBF4F83588769877A878B8729
:102E00009C87CE0107960E9403158823D1F09F81ED
:102E100088852A853B85232B31F08F3F31F481E073
:102E20009F3F19F403C081E001C080E080FD47C0EE
:102E30004F81588569857A858B859C850E945C14B5
:102E40003EC086E0FE013796DE01119601900D929C
:102E50008A95E1F7FF81E8856A857B8561157105B3
:102E600031F0EF3F31F481E0FF3F19F403C081E01E
:102E700001C080E080FD23C020914D0130E0C901F8
:102E800001968770992740914C0150E0841795076F
:102E9000F1F1F983EA837D836C8396E0929FD00100
:102EA000939FB00D1124A25BBE4FFE01319601909D
:102EB0000D929A95E1F780934D010E946C1416E0F3
:102EC00080914C0190914D01891771F1189FC001BB
:102ED0001124825B9E4F0E940315882329F1E09103
:102EE0004C011E9FF0011124E25BFE4F4081518195
:102EF00062817381848195810E945C1480914C0170
:102F000090E001968770992780934C01D9CF0E9459
:102F1000201410924D0110924C01EEE7F1E086E092
:102F2000DF011D928A95E9F72C960FB6F894DEBF63
:102F30000FBECDBFDF91CF911F910895EF92FF9209
:102F40000F931F93CF93DF938C01892B09F46CC0EF
:102F5000F12CEE24E394E8012196F8018491843762
:102F600040F4843008F051C0813081F0823019F192
:102F70005BC0853709F444C0A8F19CE7980F9037EF
:102F800008F052C08F770E94FC1041C00E5F1F4FA7
:102F9000FE01849190E2980F983050F48770FE2DD6
:102FA00001C0FF0F8A95EAF78F2F0E94261A14C0DE
:102FB0000E94D20F2DC00E5F1F4FFE01849190E240
:102FC000980F983060F48770FE2D01C0FF0F8A952E
:102FD000EAF78F2F0E942C1A0E94511A19C00E94E2
:102FE000FC1016C00E5F1F4FFE01C491CC2381F070
:102FF0008FE99FE00197F1F700C00000C150F6CFC4
:103000000E5F1F4FFE01F49003C00E94D20F8E018D
:103010008F2D882309F49FCFEFE9FFE03197F1F777
:1030200000C000008150F5CFDF91CF911F910F912B
:10303000FF90EF900895089508950C941C180C9437
:103040001D180E941F186093920170939301809342
:103050009401909395010C9406140C9421180F93ED
:103060001F9300919201109193012091940130914E
:103070009501602B712B822B932B1F910F910C9438
:1030800021180F931F9300919201109193012091A9
:1030900094013091950160237123822393231F9122
:1030A0000F910C9421180F931F930091920110918E
:1030B0009301209194013091950160277127822717
:1030C00093271F910F910C9421180C941C180E94A7
:1030D000651860938E0170938F0180939001909397
:1030E00091010C94061460E070E0CB010C94671819
:1030F0000F931F9341E050E060E070E08A019B0174
:1031000004C0000F111F221F331F8A95D2F7C90177
:10311000B8011F910F910C9467180F931F9341E012
:1031200050E060E070E004C0440F551F661F771F39
:103130008A95D2F780918E0190918F01A091900194
:10314000B09191018A019B01082B192B2A2B3B2B53
:10315000C901B8011F910F910C9467180F931F9329
:1031600041E050E060E070E004C0440F551F661F6E
:10317000771F8A95D2F7409550956095709580910C
:103180008E0190918F01A0919001B09191018A01DF
:103190009B01082319232A233B23C901B8011F914E
:1031A0000F910C9467180F931F9341E050E060E07B
:1031B00070E004C0440F551F661F771F8A95D2F731
:1031C00080918E0190918F01A0919001B091910119
:1031D0008A019B01082719272A273B27C901B80123
:1031E0001F910F910C9467180F931F9300918E01FC
:1031F00010918F012091900130919101602B712BE2
:10320000822B932B1F910F910C9467180F931F9390
:1032100000918E0110918F012091900130919101C8
:1032200060237123822393231F910F910C946718BD
:103230000F931F9300918E0110918F0120919001A7
:103240003091910160277127822793271F910F9159
:103250000C9467180895292F220F920F890FE82FD9
:10326000E695E695E695877051E001C0550F8A9581
:10327000EAF785E0E89FF0011124EC57FE4F20E0CB
:1032800030E070E04081CB01022E02C09695879518
:103290000A94E2F78170819584278523842781939E
:1032A0002F5F3F4F2530310569F70895292F220FF1
:1032B000920F890F682F669566956695982F97707F
:1032C00085E0689FB001112440E050E080E0FB0100
:1032D000E40FF51FEC57FE4F208130E0092E02C0AD
:1032E000369527950A94E2F721703327042E01C002
:1032F000220F0A94EAF7822B4F5F5F4F453051054A
:1033000031F70895BF92CF92DF92EF92FF920F9321
:103310001F93CF93DF938C01C0908E01D0908F01CB
:10332000E0909001F0909101809192019091930131
:10333000A0919401B0919501C82AD92AEA2AFB2AC2
:10334000CFE1D0E0D701C6010C2E04C0B695A795F9
:10335000979587950A94D2F780FD04C0219790F73E
:10336000B12C07C0BC2EB8018C2F0E94A509019773
:10337000A9F38B2DDF91CF911F910F91FF90EF90CB
:10338000DF90CF90BF900895CF93DF93EC010E9420
:103390008219BE010E94A509DF91CF9108951F9364
:1033A000CF93DF93EB0190914B01992321F0CB0157
:1033B0000E94C41913C0882349F0CB010E948219CE
:1033C000182F682FCE010E942B1904C0CB010E9438
:1033D0005619182FBE01812F0E94A509DF91CF91A8
:1033E0001F910895809196018595859585950895FD
:1033F000809196018770089590919601977081E071
:1034000009F480E008958091A20108959091A201AD
:10341000892B8093A201089580959091A201892320
:103420008093A20108951092A20108959091A101A4
:10343000892B8093A101089580959091A101892302
:103440008093A10108951092A10108959091A00187
:10345000892B8093A001089580959091A0018923E4
:103460008093A00108951092A00108958091970182
:10347000089508950C94391A0C943A1A9091970172
:10348000981721F0809397010C943C1A089580912D
:103490009701882329F01092970180E00C943C1A40
:1034A0000895E0910001F09101018091A2018083D3
:1034B000E0910001F091010190818091A101892B9F
:1034C0008083E0910001F091010190818091A00141
:1034D000892B808380919701882381F0E0910001FE
:1034E000F09101019081892B80838091000190915E
:1034F00001010E94531B81110E94471A8091000113
:10350000909101010C942A0E0C94391A98E0899F2D
:1035100090011124262B209396010E948D188091F2
:1035200096018595859585950C94841A109296013F
:1035300080E00C94841A20919601809582238093D8
:103540009601982F977079F430E0482F082E000CE0
:10355000550B2417350739F08595859585950E947B
:10356000AE180C94961A089590933301809332010B
:1035700008958295982F937344E0949F90011124AD
:103580008C7C86958695282B822F8575880F2A7AC4
:103590002695822B089580E090E00E948F2C21E0F8
:1035A0008D3E9E4F09F020E0822F089582E090E04A
:1035B0000C94872C83E090E00C94872C84E090E0BE
:1035C0000C94872C682F84E090E00C94952CAB0130
:1035D000BC018FE090E00C94A72CAB01BC0183E10F
:1035E00090E00C94A72C60E070E0CB010C94ED1AF5
:1035F00060E070E0CB010E94E71A0C94F31A6DEEC4
:103600007EEF80E090E00E94B32C60E082E090E0EA
:103610000E94952C60E083E090E00E94952C10922F
:10362000920110929301109294011092950160E022
:1036300084E090E00E94952C60E085E090E00E949C
:10364000952C60E086E090E00E94952C6FEF87E07B
:1036500090E00E94952C40E050E0BA0188E090E0B4
:103660000E94A72C60E08DE090E00E94952C40E045
:1036700050E0BA0188E190E00E94A72C60E087E169
:1036800090E00E94952C40E050E0BA018CE190E07F
:103690000E94A72C60E080E290E00E94952C0C94A0
:1036A000F81A0C94FF1AFC01329697E080E09150D2
:1036B00029F021912223D9F38F5FF9CF08959C013E
:1036C000FC0132969FEF80E04191461789F09F3FC1
:1036D00019F4411101C0982F8F5F8630A9F79F3FE1
:1036E00039F0F901E90FF11D97FDFA95628308950C
:1036F00008959C012A5F3F4FFC014281461301C09F
:103700001282019682179307B9F708950C945F1BF4
:103710000C94791B029626E0FC0111922A95E9F798
:10372000089508950C94911B0C94911BCF930E94C3
:10373000941B0E949F0C0E94921BC0E08C2F0E9441
:10374000020C811104C0CF5FC330C1F701C081E01A
:10375000CF9108950C94911B0C94AA1B0E94AC1B52
:103760008091CB01843049F11092A40120E488E1DA
:1037700090E00FB6F894A895809360000FBE209358
:10378000600080E00E947A080E94AC1B83B7817FB2
:10379000846083BF83B7816083BF7894889583B743
:1037A0008E7F83BF0FB6F894A895809160008861E2
:1037B00080936000109260000FBE08950C94911BDE
:1037C0000E9420140E941E0E0E947A080C94DE1B98
:1037D0001F920F920FB60F9211248F939F93AF9366
:1037E000BF938091A401811113C08091C101909178
:1037F000C201A091C301B091C4014196A11DB11DA8
:103800008093C1019093C201A093C301B093C401FE
:10381000BF91AF919F918F910F900FBE0F901F900E
:10382000189582E084BD93E095BD9AEF97BD809393
:103830006E0008952FB7F8948091C1019091C20154
:10384000A091C301B091C4012FBF08952FB7F89480
:103850006091C1017091C2018091C3019091C40136
:103860002FBF0895CF92DF92EF92FF920F931F9395
:103870002FB7F8944091C1015091C2016091C301EA
:103880007091C4012FBF6A017B01EE24FF248C01DB
:1038900020E030E0C016D106E206F30610F44150F5
:1038A00051099A01281B390BC9011F910F91FF90F3
:1038B000EF90DF90CF90089578941F920F920FB6FB
:1038C0000F9211248F939F93AF93BF938091C10167
:1038D0009091C201A091C301B091C4010196A11DB4
:1038E000B11D8093C1019093C201A093C301B09315
:1038F000C401BF91AF919F918F910F900FBE0F9018
:103900001F90189581E08093E00080E28093D800BA
:103910001092C9008FE19EE40197F1F700C000000A
:1039200087E090EBDC018093D4019093D501A093C4
:10393000D601B093D7019CE088E10FB6F894A89522
:10394000809360000FBE90936000FFCF0E94CB1A5F
:10395000811102C00E94511B0E94D61A8093A301BC
:103960000E94DE1A90E09093C6018093C5010E94E8
:10397000DA1A682F70E080E090E00C942D188091A6
:10398000A80180FF0BC06091050185E0689FB00130
:10399000112475956795759567952BC081FF09C0B2
:1039A0006091050185E0689FB001112475956795C8
:1039B00020C082FF07C06091050185E0689FB001CB
:1039C000112417C09091A7019923D1F060910401AF
:1039D000961788F72091050185E0289F9001112412
:1039E000929FA001939F500D112470E0CA010E9484
:1039F000592C6038710540F46115710519F406C041
:103A000065E070E0862F08958FE7089581E00895BE
:103A10008091A80180FF08C06091030170E0759556
:103A200067957595679521C081FF06C06091030178
:103A300070E07595679519C082FF04C0609103011D
:103A400070E010C09091A701992399F06091020154
:103A50009617A0F780910301899FC001112470E09F
:103A60000E94592C6038710540F46115710519F4F4
:103A700006C061E070E0862F08958FE7089581E029
:103A80000895803F21F40E94BF1C819504C0813FAE
:103A900029F40E94BF1C8093AC010895823F21F459
:103AA0000E94BF1C819504C0833F29F40E94BF1C63
:103AB0008093AB010895893F19F40E94081D05C049
:103AC0008A3F31F40E94081D81958093AD010895CD
:103AD0008B3F21F40E94081D819504C08C3F29F47E
:103AE0000E94081D8093AE010895843F21F48091C7
:103AF000AA01816017C0853F21F48091AA018260EC
:103B000011C0863F21F48091AA0184600BC0873FD9
:103B100021F48091AA01886005C0883F31F480912A
:103B2000AA0180618093AA0108958D3F21F48091BC
:103B3000A80181600BC08E3F21F48091A8018260B2
:103B400005C08F3F29F48091A80184608093A8016B
:103B50000895803F39F48091AC0187FF6CC01092CA
:103B6000AC0169C0813F29F48091AC011816BCF307
:103B700062C09091AB01823F29F497FF5CC0109224
:103B8000AB0159C0833F19F41916CCF354C0893FD7
:103B900041F48091AD0118160CF04DC01092AD01AA
:103BA0004AC08A3F29F48091AD0187FF44C0F6CF17
:103BB0008B3F39F48091AE0187FF3DC01092AE017A
:103BC0003AC08C3F29F48091AE011816BCF333C083
:103BD000843F21F48091AA018E7F17C0853F21F494
:103BE0008091AA018D7F11C0863F21F48091AA01A6
:103BF0008B7F0BC0873F21F48091AA01877F05C08E
:103C0000883F31F48091AA018F7E8093AA0113C06E
:103C10008D3F21F48091A8018E7F0BC08E3F21F44F
:103C20008091A8018D7F05C08F3F29F48091A80164
:103C30008B7F8093A8018091AB0181110EC0809190
:103C4000AC0181110AC08091AD01811106C0809143
:103C5000AE01811102C01092A70108958091A301C5
:103C600083FF7EC08CE793E00E9408078091AA0141
:103C70001F928F9387E793E09F938F930E94A107F2
:103C800085E793E00E9408078091AB01282F082E5A
:103C9000000C330B3F938F9382E793E09F938F93B6
:103CA0000E94A10780E793E00E9408078091AC0181
:103CB000282F082E000C330B3F938F938DE693E053
:103CC0009F938F930E94A1078BE693E00E940807C1
:103CD0008091AD01282F082E000C330B3F938F935A
:103CE00088E693E09F938F930E94A10786E693E076
:103CF0000E9408078091AE01282F082E000C330B7C
:103D00003F938F9383E693E09F938F930E94A10745
:103D100080E693E00E9408078091A7011F928F938D
:103D20008DE593E09F938F930E94A1078BE593E02D
:103D30000E9408078091A8011F928F9388E593E065
:103D40009F938F930E94A10785E593E00E94080747
:103D50008DB79EB74C960FB6F8949EBF0FBE8DBF21
:103D600089EA91E00E94730E0E941A1C9093A601AA
:103D70008093A50108951F93CF93DF938091A501B0
:103D80009091A6010E94321CAC019091A701992349
:103D900021F02091060130E006C0209107018AE061
:103DA000289F900111244217530708F47BC080918B
:103DB000AB01C091AC01D091AD011091AE01811168
:103DC00007C0C1116BC0D11169C0111167C06AC0B1
:103DD0009F3F19F09F5F9093A701181624F40E944B
:103DE000BF1C8093AB018091AB0187FF05C00E948F
:103DF000BF1C81958093AB011C1624F40E94BF1C4C
:103E00008093AC018091AC0187FF05C00E94BF1C6C
:103E100081958093AC013091AB013323E1F0209187
:103E2000AC012223C1F045EB3403C00111249923D6
:103E300019F09093AB0103C081E08093AB0135EBA7
:103E40002303C0011124992319F09093AC0103C0FE
:103E500081E08093AC011D1624F40E94081D80931C
:103E6000AD018091AD0187FF05C00E94081D8195BD
:103E70008093AD01111624F40E94081D8093AE01B9
:103E80008091AE0187FF05C00E94081D8195809337
:103E9000AE01DF91CF911F910C942E1E9F3F09F030
:103EA00099CFAACFDF91CF911F910895E9EAF1E070
:103EB00086E0DF011D928A95E9F71092A701109222
:103EC000A80108958FE995E00E9408071F9281E0FC
:103ED0008F931F9285E08F9381E595E09F938F9359
:103EE0000E94A1070F900F900F900F900F900F90CE
:103EF00008958330E9F128F4813061F0823009F1CE
:103F00000895853009F462C008F449C0863009F488
:103F100074C0089580910701262F30E0280F311DCD
:103F20002F3F310524F4680F6093070103C08FEF22
:103F300080930701809107011F928F938AE894E094
:103F400072C080910601262F30E0280F311D2F3FCF
:103F5000310524F4680F6093060103C08FEF80934E
:103F60000601809106011F928F9388E794E05BC061
:103F700080910501262F30E0280F311D2F3F31059C
:103F800024F4680F6093050103C08FEF809305014F
:103F9000809105011F928F9385E694E044C0809143
:103FA0000401262F30E0280F311D2F3F310524F466
:103FB000680F6093040103C08FEF80930401809128
:103FC00004011F928F9380E594E02DC0809103013E
:103FD000262F30E0280F311D2F3F310524F4680FC4
:103FE0006093030103C08FEF80930301809103016D
:103FF0001F928F9387E394E016C080910201262FD1
:1040000030E0280F311D2F3F310524F4680F6093F5
:10401000020103C08FEF80930201809102011F9281
:104020008F938CE194E09F938F930E94A1070F9050
:104030000F900F900F900895833081F128F4813014
:1040400059F08230D1F00895853009F449C0B8F1B3
:10405000863009F456C0089580910701681720F44E
:10406000861B8093070102C010920701809107010F
:104070001F928F938DE094E054C0809106016817E1
:1040800020F4861B8093060102C0109206018091E5
:1040900006011F928F938BEF93E043C0809105013F
:1040A000681720F4861B8093050102C01092050159
:1040B000809105011F928F9388EE93E032C080912A
:1040C0000401681720F4861B8093040102C010923B
:1040D0000401809104011F928F9383ED93E021C02E
:1040E00080910301681720F4861B8093030102C0AE
:1040F00010920301809103011F928F938AEB93E04A
:1041000010C080910201681720F4861B8093020181
:1041100002C010920201809102011F928F938FE9D9
:1041200093E09F938F930E94A1070F900F900F90A1
:104130000F900895CF93C82F1F928F9384EA96E033
:104140009F938F930E94A10781E090E0A0E0B0E0F0
:10415000BC01CD0104C0660F771F881F991FCA9547
:10416000D2F70E942D180F900F900F900F90CF91C3
:104170000C942014CF938B3109F4D1C108F067C19E
:104180008B3009F48AC108F03DC1863009F488C13A
:1041900020F4853009F496C144C2873009F4A4C1E3
:1041A000883009F03EC28DEA9BE00E9408078EEF3E
:1041B0009AE00E9408070E94DA1A1F928F938BEFF1
:1041C0009AE09F938F930E94A10789EF9AE00E9443
:1041D00008070E94D61AC82F86EE9AE00E940807A8
:1041E0001F92CF9381EE9AE09F938F930E94A10735
:1041F0008FED9AE00E94080785ED9AE00E9408077B
:104200008C2F81701F928F9382ED9AE09F938F93F2
:104210000E94A10780ED9AE00E94080786EC9AE0D0
:104220000E940807C1FB882780F91F928F9383ECB7
:104230009AE09F938F930E94A10781EC9AE00E94DD
:10424000080785EB9AE00E940807C2FB882780F9DF
:104250001F928F9382EB9AE09F938F930E94A10706
:1042600080EB9AE00E94080787EA9AE00E9408071C
:10427000C3FBCC27C0F91F92CF9384EA9AE09F93A7
:104280008F930E94A10782EA9AE00E9408070E9489
:10429000DE1AC82F8EE89AE00E9408071F92CF937B
:1042A00089E89AE09F938F930E94A10787E89AE09C
:1042B0000E9408078EE69AE00E9408078C2F817002
:1042C0001F928F938BE69AE09F938F930E94A10792
:1042D0008DB79EB780960FB6F8949EBF0FBE8DBF68
:1042E00089E69AE00E94080782E59AE00E940807A2
:1042F000C1FB882780F91F928F938FE49AE09F93E8
:104300008F930E94A1078DE49AE00E9408078BE337
:104310009AE00E940807C2FB882780F91F928F93BA
:1043200088E39AE09F938F930E94A10786E39AE027
:104330000E94080784E29AE00E940807C3FB8827CE
:1043400080F91F928F9381E29AE09F938F930E944E
:10435000A1078FE19AE00E94080785E19AE00E9498
:104360000807C4FB882780F91F928F9382E19AE0A7
:104370009F938F930E94A10780E19AE00E94080713
:104380008EEF99E00E940807C5FB882780F91F92ED
:104390008F938BEF99E09F938F930E94A10789EFF2
:1043A00099E00E9408078DED99E00E940807C6FB7E
:1043B000882780F91F928F938AED99E09F938F93BE
:1043C0000E94A10788ED99E00E94080780ED99E01E
:1043D0000E940807C7FBCC27C0F91F92CF938DEC32
:1043E00099E09F938F930E94A1078BEC99E00E9424
:1043F00008078DB79EB74C960FB6F8949EBF0FBEB8
:104400008DBF49C0803109F4B4C020F48E3009F466
:104410009AC007C1863109F4C7C0893109F001C1CA
:1044200082EF97E00E94080789ED97E00E94080755
:1044300081EA97E00E94080783E797E00E94080757
:104440008DE397E00E94080782E197E08FC08A32EF
:10445000E1F060F4873209F4E0C028F48E3108F40A
:10446000E0C08D51DBC0893269F1DBC0833448F490
:104470008A3308F0D0C0853309F4CFC0883369F09F
:10448000D0C0833409F4C9C0CCC08CE99BE00E9441
:1044900008070E94511BC1E0C9C088E298E066C0CD
:1044A0008091A301817F8E7F8093A30181E098E0BA
:1044B0000E94080788E99BE00E94080781E080933A
:1044C000B001E9CF0E9420148CE79BE00E9408070E
:1044D0009FEF23ED80E3915020408040E1F700C042
:1044E00000000E94821CD7CF8091A301C82FC095E5
:1044F000C170C0FB80F98093A301CC2329F080E731
:104500009BE00E94080792C083E69BE00E94080798
:104510008091A301897F877F8093A301BCCF909175
:10452000A30191FBCC27C0F981E0C827892FC0FBEC
:1045300081F98093A301CC2319F086E59BE029C083
:1045400088E49BE013C09091A30192FBCC27C0F9B3
:1045500081E0C827892FC0FB82F98093A301CC2377
:1045600019F089E39BE015C089E29BE00E940807EF
:1045700092CF9091A30193FBCC27C0F981E0C8278B
:10458000892FC0FB83F98093A301CC2351F08DE1E7
:104590009BE00E9408078091A30181608093A301A2
:1045A00045C080E19BE0E2CF84E097E00E940807ED
:1045B0000E941E0E1F928F938AEE96E09F938F9318
:1045C0000E94A107809112011F928F9383ED96E0C4
:1045D0009F938F930E94A1078091BD011F928F939B
:1045E00080EC96E09F938F930E94A1070E94261C67
:1045F0009F938F937F936F9389EA96E09F938F9316
:104600000E94A1078DB79EB742960FB6F8949EBF41
:104610000FBE8DBF40CF895301C080E00E949A2019
:104620003ACF8EE09BE00E940807C0E08C2FCF912C
:10463000089580E008950C9419238E518A3030F447
:10464000E82FF0E0E75EFE4F8081089580E0089556
:10465000CF93C82F8091B001813059F020F0823083
:1046600009F445C039C10E94031A823209F036C1EB
:1046700004C00E94031A823261F48C2F0E941B2313
:10468000811104C08C2F0E94BA202FC081E090E0DD
:104690002CC08C2F0E941923811126C0C431E1F057
:1046A00070F4CB3081F0C031D1F40E94621F8CE9EC
:1046B00096E00E94080782E08093B00115C0C932DD
:1046C00059F0C83361F481E098E00E94080780EA5D
:1046D00096E00E94080708C01092B00101C18AE963
:1046E00096E00E940807FCC081E08170FBC0C432E4
:1046F00028F5CE3108F0C1C0CB30A1F1D0F4C730DD
:1047000009F0D0C08EE18093070182E38093060117
:104710008AE08093050184E18093040188E080931E
:10472000030188E28093020180E495E00E9408077B
:10473000BCC0C33149F1C431C1F0B4C0CB3409F4B9
:10474000A6C028F4C93289F0C83361F0ABC0C135C6
:1047500009F49BC0C23509F496C0CE3409F0A2C05A
:104760006AE09BC00E94621FA0C08091AF018823B5
:1047700019F01092AF0199C08DE495E00E940807EE
:1047800081E08093B001AEC087E295E00E94080707
:1047900085E195E00E940807809107011F928F93A1
:1047A00082E195E09F938F930E94A10780E195E0BD
:1047B0000E9408078EEF94E00E940807809106018E
:1047C0001F928F938BEF94E09F938F930E94A1078A
:1047D00089EF94E00E9408078AEE94E00E9408079F
:1047E000809105011F928F9387EE94E09F938F93A2
:1047F0000E94A10785EE94E00E94080784ED94E0F2
:104800000E940807809104011F928F9381ED94E02C
:104810009F938F930E94A1078FEC94E00E9408075A
:104820008AEB94E00E940807809103011F928F9306
:1048300087EB94E09F938F930E94A10785EB94E010
:104840000E9408078EE994E00E9408078091020107
:104850001F928F938BE994E09F938F930E94A107FF
:1048600089E994E00E9408078DB79EB748960FB675
:10487000F8949EBF0FBE8DBF18C08C2F0E941D23C1
:104880008093AF0112C061E003C061E006C06AE03E
:104890008091AF010E94791F08C08091AF010E94F2
:1048A0001C2003C08EE395E013C08091AF018823E4
:1048B00069F01F928F9388E395E09F938F930E94F6
:1048C000A1070F900F900F900F9004C085E395E023
:1048D0000E94080781E006C01092B00180E002C08B
:1048E00080E003CFCF9108958091BC0108959FB7D8
:1048F000F8941092B3019FBF9091CB01943009F0CE
:1049000057C09091E9009F703091EC00232F2170E7
:1049100030FD20E8922B23E02093E9002091EB006A
:1049200020FF43C02091EE0027FF3FC02091B1013E
:10493000222321F02091E80025FF37C01092B10119
:1049400026E03091E80035FD15C03091CB013430C0
:1049500061F53091EB0035FD28C0215021F481E054
:104960008093B10122C0EFE9FFE03197F1F700C079
:104970000000E7CF8093F1008091E80085FD0AC038
:104980008091E80080FFFCCF8091E8008E778093D3
:10499000E80006C08FB7F89421E02093B3018FBFE1
:1049A0009F709093E90080E008959F709093E900D4
:1049B0008FEF08950F931F93CF93DF9300D01F9233
:1049C000CDB7DEB78C010E949327823011F084307E
:1049D00021F584E089831B830A8382E08093E900C8
:1049E0008FEF9091E800815095FD06C095ED9A9566
:1049F000F1F700008111F5CF8091E80085FF0DC02F
:104A000040E050E063E070E0CE0101960E94B027E4
:104A10008091E8008E778093E8000F900F900F90C0
:104A2000DF91CF911F910F910895CF93DF9300D025
:104A30001F92CDB7DEB72091CB01243031F523E0B2
:104A40002983805891099B838A8382E08093E900BF
:104A50008FEF9091E800815095FD06C095ED9A95F5
:104A6000F1F700008111F5CF8091E80085FF0DC0BE
:104A700040E050E063E070E0CE0101960E94B02774
:104A80008091E8008E778093E8000F900F900F9050
:104A9000DF91CF910895CF93DF93EC010E9493278C
:104AA000823011F08430F9F482E08093E9008FEFD6
:104AB0009091E800815095FD06C095ED9A95F1F72B
:104AC00000008111F5CF8091E80085FF0CC040E027
:104AD00050E066E070E0CE010E94B0278091E800CF
:104AE0008E778093E800DF91CF910895CF93DF9385
:104AF000EC010E949327823011F0843039F581E077
:104B00008093E9008FEF9091E800815095FD06C0F9
:104B100095ED9A95F1F700008111F5CF8091E800AD
:104B200085FF14C040E050E068E070E0CE010E94D4
:104B3000B0278091E8008E778093E80088E0FE013E
:104B4000A4EBB1E001900D928A95E1F7DF91CF914E
:104B500008958DED9BE00E9408078091CA018111A4
:104B600009C00E9441290E949E298091E200846030
:104B70008093E200089589ED9BE00E94080710925F
:104B8000CA01089585ED9BE00C94080781ED9BE038
:104B90000C9408078DEC9BE00E9408070C94E01B26
:104BA0002091B2012F5F822F62E30E944D2C992346
:104BB00019F02093B20108951092B2018091B301CF
:104BC000882371F18091CB01843041F58091E90017
:104BD0008F702091EC00922F917020FD90E8892B2E
:104BE00093E09093E9009091EB0090FF14C09091B6
:104BF000EE0097FF10C09091E80095FF03C010925F
:104C0000F100F9CF9091E80090FF05C09091E80085
:104C10009E779093E8008F708093E9001092B30123
:104C2000089542E061EC81E00E94BA2842E261EC22
:104C300082E00E94BA2842E261EC83E00C94BA2838
:104C40008091CD01833009F460C030F4813071F07F
:104C5000823009F499C008958A3009F485C08B30F8
:104C600009F46BC0893009F0A7C020C08091CC0145
:104C7000813A09F0A1C08091E800877F8093E80025
:104C80008091D0019091D101892B21F468E084EBCF
:104C900091E003C060E080E090E070E00E94FB27BC
:104CA0008091E8008B778093E80008958091CC0193
:104CB000813209F081C08091D0019091D101029799
:104CC00008F07AC08091E800877F8093E8008091A7
:104CD000E80082FD05C08091CB018111F8CF6CC046
:104CE0002091F3008091F20090E0922B029729F43A
:104CF0008091F1008B7F813021F48091F1008093CD
:104D0000BC018091E8008B7753C08091CC01813A3F
:104D100009F052C08091D0019091D101892B09F006
:104D20004BC08091E800877F8093E8008091E80085
:104D300080FFFCCF8091120136C08091CC0181327E
:104D4000D9F58091D0019091D101892BA9F580915D
:104D5000E800877F8093E8000E94EF288091CE01D1
:104D6000809312010C9420148091CC01813221F5A2
:104D70008091E800877F8093E8000E94EF2880916F
:104D8000CF018093BD0108958091CC01813AA1F4B7
:104D90008091E800877F8093E8008091E80080FFA1
:104DA000FCCF8091BD018093F1008091E8008E7767
:104DB0008093E8000C94EF28089584B7877F84BF20
:104DC0000FB6F894A8958091600088618093600088
:104DD000109260000FBE80E8809361001092610025
:104DE0000E94BD0E0E9441290E949E298091E200EE
:104DF00084608093E20087E794E20E94B41A78947A
:104E00000E94322C0E94C50E88E091E00E94190E8B
:104E10008CEB9BE00E9408078091CB01853089F4E0
:104E200088EB9BE00E9408070E94AE1B8091C9019D
:104E3000882391F30E94961B882371F30E949A277E
:104E4000EBCF0E94F50EE8CF0C942627292F3327AD
:104E500023303105C9F060F42130310581F0223072
:104E6000310509F047C08BE590E021E13CE046C008
:104E70002132310511F12232310561F13BC082E16D
:104E800090E02CE63CE03AC099278130910561F032
:104E900040F08230910559F0039761F5E1EEFBE0B7
:104EA00008C0EDE0FCE005C0E1E0FCE002C0E7EE98
:104EB000FBE0849190E09F0121C063307105D0F444
:104EC000660F771FFB01E45DFE4F2081318189E091
:104ED00090E014C06330710568F4FB01EE0FFF1F12
:104EE000EA5DFE4F20813181FB01ED5DFE4F808147
:104EF00090E004C080E090E020E030E0FA013183EF
:104F0000208308950895CF93C82F0E948227C093CD
:104F1000BE01CF9108958091CB01843011F081E0E2
:104F2000089582E008958091BE01811102C00C9421
:104F30008B27089580E189BD82E189BD09B400FE17
:104F4000FDCF8091D8008F7D8093D8008091E000C4
:104F500082608093E0008091E00081FDFCCF0895A5
:104F6000CF92DF92EF92FF920F931F93CF93DF9335
:104F7000EC018B017A010E940E29811133C0E114EA
:104F8000F10439F0F70180819181081B190BC80FDA
:104F9000D91FC12CD12C0115110519F18091E80000
:104FA00085FD16C08091E8008E778093E800E114BB
:104FB000F10449F0F70180819181C80ED91ED18298
:104FC000C08285E00FC00E940E29882321F30AC009
:104FD00089918093F10001501109FFEFCF1ADF0A88
:104FE000DACF80E0DF91CF911F910F91FF90EF908A
:104FF000DF90CF9008952091D2013091D3012617F0
:10500000370748F06115710539F42091E8002E77D3
:105010002093E80001C0B901FC0120E06115710591
:1050200079F18091CB018823F1F18530F1F1809104
:10503000E80083FD3CC08091E80082FD2EC0809195
:10504000E80080FFEBCF2091F3008091F20090E028
:10505000922B6115710551F08830910538F421913A
:105060002093F100615071090196F3CF21E0089778
:1050700009F020E08091E8008E778093E800CECFA1
:105080002111CFCF0AC08091CB01882361F08530F8
:1050900061F08091E80083FD0AC08091E80082FF02
:1050A000F2CF80E0089582E0089583E0089581E0E2
:1050B00008952091D2013091D3012617370748F087
:1050C0006115710539F42091E8002E772093E800EE
:1050D00001C0B901FC0120E06115710591F18091D9
:1050E000CB01882309F440C0853009F43FC080918A
:1050F000E80083FD3DC08091E80082FD2FC08091D3
:10510000E80080FFE9CF2091F3008091F20090E069
:10511000922B6115710559F08830910540F4249166
:105120002093F1003196615071090196F2CF21E090
:10513000089709F020E08091E8008E778093E800DE
:10514000CBCF2111CCCF0AC08091CB01882361F055
:10515000853061F08091E80083FD0AC08091E8000D
:1051600082FFF2CF80E0089582E0089583E0089501
:1051700081E00895982F973068F59093E90098178B
:1051800039F07091EC002091ED005091F00003C0D7
:10519000242F762F50E021FD02C09F5FECCF30918D
:1051A000EB003E7F3093EB003091ED003D7F30937C
:1051B000ED003091EB0031603093EB007093EC0028
:1051C0002093ED005093F0002091EE0027FDE5CFF5
:1051D00080E008958F708093E90081E008958091C8
:1051E000CC0187FF11C08091E80082FD05C080914D
:1051F000CB018111F8CF11C08091E8008B770BC0F3
:105200008091CB01882349F08091E80080FFF8CF9E
:105210008091E8008E778093E80008952091E40063
:105220003091E50095E64091EC00842F817040FFBD
:1052300023C08091E80080FD1DC08091CB018823B0
:1052400099F0853099F08091EB0085FD11C0409177
:10525000E4005091E5002417350729F3915011F02F
:105260009A01E1CF84E0089582E0089583E00895F3
:1052700081E0089580E008954091E80042FFDDCF8D
:1052800008950E94AF290E94B729E0EEF0E08081E6
:1052900081608083E8EDF0E080818F77808319BCA6
:1052A000A7EDB0E08C918E7F8C9380818F7E808380
:1052B0001092CA0108950F931F93CF93DF930E941A
:1052C000AF290E94B729C8EDD0E088818F77888305
:1052D00088818068888388818F7D888319BC10923B
:1052E000CB011092C7011092C9011092C80100EEC3
:1052F00010E0F80180818B7F8083888181608883C2
:1053000042E060E080E00E94BA28E1EEF0E08081B7
:105310008E7F8083E2EEF0E08081816080838081F7
:1053200088608083F80180818E7F8083888180619E
:105330008883DF91CF911F910F910895E8EDF0E000
:1053400080818F7E8083E7EDF0E0808181608083C3
:1053500084E082BF81E08093CA010C945B29E8ED70
:10536000F0E080818E7F80831092E2000895109299
:10537000DA001092E10008951F920F920FB60F927B
:1053800011242F933F934F935F936F937F938F934A
:105390009F93AF93BF93EF93FF938091E10082FFC0
:1053A0000BC08091E20082FF07C08091E1008B7FFB
:1053B0008093E1000E94D0258091DA0080FF1FC019
:1053C0008091D80080FF1BC08091DA008E7F80938F
:1053D000DA008091D90080FF0DC080E189BD82E1B3
:1053E00089BD09B400FEFDCF81E08093CB010E940E
:1053F000A92505C019BC1092CB010E94BB25809144
:10540000E10080FF19C08091E20080FF15C080910B
:10541000E2008E7F8093E2008091E20080618093C1
:10542000E2008091D80080628093D80019BC85E0AA
:105430008093CB010E94C6258091E10084FF30C09B
:105440008091E20084FF2CC080E189BD82E189BDAA
:1054500009B400FEFDCF8091D8008F7D8093D800E5
:105460008091E1008F7E8093E1008091E2008F7E49
:105470008093E2008091E20081608093E20080915D
:10548000C701882311F084E007C08091E30087FD05
:1054900002C081E001C083E08093CB010E94CA2555
:1054A0008091E10083FF29C08091E20083FF25C045
:1054B0008091E100877F8093E10082E08093CB01BF
:1054C0001092C7018091E1008E7F8093E10080916E
:1054D000E2008E7F8093E2008091E2008061809301
:1054E000E20042E060E080E00E94BA288091F00093
:1054F00088608093F0000E94C225FF91EF91BF91D8
:10550000AF919F918F917F916F915F914F913F915B
:105510002F910F900FBE0F901F9018951F920F9212
:105520000FB60F9211242F933F934F935F936F9376
:105530007F938F939F93AF93BF93CF93DF93EF931B
:10554000FF93C091E900CF708091EC00D82FD1700B
:1055500080FDD0E81092E9008091F000877F809371
:10556000F00078940E94D22A1092E9008091F00015
:1055700088608093F000CD2BCF70C093E900FF913D
:10558000EF91DF91CF91BF91AF919F918F917F91DB
:105590006F915F914F913F912F910F900FBE0F90A0
:1055A0001F9018951F93CF93DF93CDB7DEB7AA97BF
:1055B0000FB6F894DEBF0FBECDBFECECF1E08091EA
:1055C000F100819321E0E43DF207C9F70E94202613
:1055D0008091E80083FF2EC18091CC019091CD0194
:1055E000492F50E04A30510508F024C1FA01EA572A
:1055F000FF4F0C946D2C803821F0823809F01AC1CD
:1056000008C08091C8019091C901992389F08260F6
:105610000FC08091D0018F70873008F00BC180934C
:10562000E9008091EB0085FB882780F91092E90062
:105630009091E800977F9093E8008093F10010929A
:10564000F100D1C0282F2D7F09F0F4C0882319F074
:10565000823061F0EFC08091CE01813009F0EAC064
:10566000933009F080E08093C9012EC08091CE0173
:1056700081112AC08091D0018F702FEF280F263022
:1056800008F0D8C08093E9002091EB0020FF1CC0F7
:10569000933021F48091EB00806214C09091EB0074
:1056A00090619093EB0021E030E0A90102C0440F2B
:1056B000551F8A95E2F74093EA001092EA00809124
:1056C000EB0088608093EB001092E9008091E80085
:1056D000877F8093E8000E94EF28ACC08111AAC0A8
:1056E0001091CE011F778091E3008078812B809309
:1056F000E3008091E800877F8093E8000E94EF2814
:105700008091E80080FFFCCF8091E3008068809367
:10571000E300111102C082E001C083E08093CB015D
:1057200089C08058823008F085C08091CE01909168
:10573000CF018C3D53E0950779F583E08A838AE2B7
:1057400089834FB7F894DE01139620E03EE051E2E2
:10575000E32FF0E050935700E49120FF03C0E2955F
:10576000EF703F5FEF708E2F90E0EA3010F0C79639
:1057700001C0C0968D939D932F5F243149F74FBF91
:105780008091E800877F8093E8006AE270E0CE01B4
:1057900001960E94FB2716C06091D0017091D10143
:1057A000AE014F5F5F4F0E942427BC01892B09F493
:1057B00041C09091E800977F9093E80089819A8199
:1057C0000E9459288091E8008B778093E80032C0CE
:1057D000803881F58091E800877F8093E800809190
:1057E000C7018093F1008091E8008E7772CF81111C
:1057F00021C08091CE019091CF0199270297D4F4D6
:105800008091E800877F8093E8008091CE018093AB
:10581000C7010E94EF288091C701811106C08091C5
:10582000E30087FD02C081E001C084E08093CB01EA
:105830000E9411268091E80083FF0AC08091E80051
:10584000877F8093E8008091EB0080628093EB007B
:10585000AA960FB6F894DEBF0FBECDBFDF91CF91F1
:105860001F910895CF938091CB018823A1F0C0911F
:10587000E900CF709091EC00892F817090FD80E855
:10588000C82B1092E9008091E80083FD0E94D22A83
:10589000CF70C093E900CF910895991B79E004C0BF
:1058A000991F961708F0961B881F7A95C9F780955F
:1058B000089597FB072E16F4009407D077FD09D0C2
:1058C0000E94732C07FC05D03EF4909581959F4F64
:1058D0000895709561957F4F0895EE0FFF1F059015
:1058E000F491E02D0994AA1BBB1B51E107C0AA1F2C
:1058F000BB1FA617B70710F0A61BB70B881F991F71
:105900005A95A9F780959095BC01CD010895F99914
:10591000FECF92BD81BDF89A992780B50895A8E180
:10592000B0E042E050E00C94BB2C262FF999FECF5A
:1059300092BD81BDF89A019700B4021639F01FBAE2
:1059400020BD0FB6F894FA9AF99A0FBE08950396FF
:10595000272F0E94962C0E94952C252F0E94962C72
:10596000242F0C94962C0196272F0E94962C0C9491
:10597000952CDC01CB01FC01F999FECF06C0F2BDEC
:10598000E1BDF89A319600B40D9241505040B8F7FD
:065990000895F894FFCF1A
:1059960098012808140A321E742476254B251525ED
:1059A600DA24013037903132330102030405060749
:1059B600080900408522250DA00C7E0C230C3C0C0A
:0259C600550C7E
:00000001FF
